:1000CB001201681201747F051200ED12010E12016C
:1000DB002B7F021200757F021200A07F0212000319
:0200EB0080DEB5
:040159007F107E276E
:0B015D00EF1FAC0670011E4C70F62274
:10014800E4F5807F507EC312015D7F507EC30201BB
:010158005D49
:0C016800120148D2807F507EC302015D6E
:0C017400120148D2807F507EC302015D62
:1000ED00AD07120148EDD394004015D2807F207EDC
:1000FD004E12015DC2807F207E4E12015D1D80E596
:01010D0022CF
:10010E001201487D018D80E4FB120159ED25E0FDC1
:0D011E00F5800BBB08F37F107E2702015D0A
:10012B001201487D808D80E4FB120159EDC313FD54
:0D013B00F5800BBB08F37F107E2702015DED
:02007500AD07D5
:10007700120148EDD39400401F758001E4FB120183
:1000870059AF807801EF08800123D8FDF5800BBBBD
:0800970007EC1201591D80DB8A
:01009F00223E
:0200A000AD07AA
:1000A200120148EDD39400401F758080E4FB1201D9
:1000B20059AF807801EF08800103D8FDF5800BBBB2
:0800C20007EC1201591D80DB5F
:0100CA002213
:02000300AD0747
:100005007BF47A01120148EDD3940040629000011F
:10001500C3E5829BE5839A501C7580FFAF82AE8352
:1000250012015DE4F580C3EB9582FFEA9583FE122C
:10003500015DA380DBEB24FFF582EA34FFF583D372
:10004500E5829400E583940040227580FFAF82AE7F
:100055008312015DE4F580EB9582FFEA9583FE123C
:0F006500015DE582158270D7158380D31D8098C9
:010074002269
:030000000201807A
:0C018000787FE4F6D8FD7581070200CB03
:00000001FF
