:10009A00C290C292C293D291D294D295120143C213
:1000AA0090120139D290D292D29312013DD290127B
:1000BA000139D290C292C293C291D294D2951201BE
:1000CA0043D290C292C293C29112013FC290D2927D
:1000DA00D293C29112013FC290C292C293C291C2FC
:0A00EA0094C2957F027E00020147D8
:0E013900C292C293D291C294C2957F027E0000
:10014700E4FDFCD3ED9FEE6480F8EC6480985015D5
:10015700E4FBFA0BBB00010AEB64474A70F50DBDDF
:0501670000010C80DE28
:01016C002270
:0500030012009A80FBD1
:1001DC0008180100000000000000081001000000D9
:0E01EC00000000000808FF00000000000000F6
:1001FB00438901D28C758CF0758A60D2AFD2A9225B
:1001B900E4FFFE74102EF8E6FD74182EF8E6FC6DC7
:1001C900600CED6003EE04FF74102EF8A6040EBE59
:0201D90008E13B
:0101DB002201
:1000F400E4FFE5A0A807088002C313D8FC5401FE5E
:1001040074082FF8E625E04EFE74082FF8A6060FB3
:10011400BF08DFE4FF74082FF8E6540FFE7008747C
:10012400182FF8E4F68009BE0F0674182FF876012C
:040134000FBF08E110
:0101380022A4
:030008000201FBF7
:03000B000201945B
:10019400C0E0C0D075D000C000C005C006C007755F
:1001A4008CF0758A601200F4D007D006D005D00018
:0501B400D0D0D0E032C4
:10016D00EF139290EFC313FF139292EFC313FF138C
:10017D009294EFC313FF139291EFC313FF13929356
:07018D00EFC313139295224A
:0300000002000EED
:0C000E00787FE4F6D8FD75811F020055D4
:10001A00020003E493A3F8E493A34003F68001F2F9
:10002A0008DFF48029E493A3F85407240CC8C333E7
:10003A00C4540F4420C8834004F456800146F6DFB6
:10004A00E4800B01020408102040809001DCE47E69
:10005A00019360BCA3FF543F30E509541FFEE493AB
:10006A00A360010ECF54C025E060A840B8E493A372
:10007A00FAE493A3F8E493A3C8C582C8CAC583CA9D
:10008A00F0A3C8C582C8CAC583CADFE9DEE780BE55
:0101FA000004
:00000001FF
