:080317002020202020202020DE
:1002430078097C007D007BFF7A0379177E007F08A5
:100253001200D3E4F508E508C39400400FE508D382
:1002630094095008E5082430F5108006E508243782
:10027300F5107511007512C87B007A007909E5083D
:1002830020E003D38001C340047D0180027D00127E
:100293000126E512151270021511D3E5129400E53B
:0E02A30011940050D30508E508C3941040A83C
:0102B100222A
:1001B800E4F508E508C394004028E508D3940950FD
:1001C80021E4F511F512E5082430FF74092512F829
:1001D800A6070512E512700205116408451170E6BC
:1001E800801FE4F511F512E5082437FF740925127C
:1001F800F8A6070512E5127002051164084511708A
:10020800E67511007512C87B007A007909E50820A7
:10021800E0047D0080027DFF120126E512151270B0
:10022800021511D3E5129400E511940050D9050880
:0A023800E508C3941050030201BB57
:010242002299
:08030F001202431201B880F84C
:1002B200EFC394044003D38001C392A4EFC3940418
:1002C200400474FC2FFFEFC394024003D38001C3A8
:1002D20092A3EFC3940240021F1FEFC39401400395
:0702E200D38001C392A222A8
:1002E9003F065B4F666D7D077F6F777C395E79715D
:0A02F900800001020408102040807C
:07031F00AE071FEE70FA2289
:080126008B138A1489158D1654
:10012E00E4F517AF171202B2AB13AA14A91585176F
:10013E00827583001200F9FFC39430400CEFD39404
:10014E00395006EF9002B98025AB13AA14A9158574
:10015E0017827583001200F9FFC39441400CEFD350
:10016E0094465006EF9002B280049002FAE493F5A2
:10017E0018C374079517FFE516A807088002C31366
:10018E00D8FC5401FF9002F9E493FEEF8EF0A42503
:10019E0018F5907F6412031FA3E493F5900517E5FD
:0901AE0017C3940850030201314B
:0101B7002225
:03000000020303F5
:0C030300787FE4F6D8FD75811802030F26
:10000300E709F608DFFA8046E709F208DFFA803EDF
:1000130088828C83E709F0A3DFFA8032E309F608CC
:10002300DFFA8078E309F208DFFA807088828C8334
:10003300E309F0A3DFFA806489828A83E0A3F608E8
:10004300DFFA805889828A83E0A3F208DFFA804CC2
:1000530080D280FA80C680D4806980F28033801099
:1000630080A680EA809A80A880DA80E280CA803302
:1000730089828A83ECFAE493A3C8C582C8CCC5837A
:10008300CCF0A3C8C582C8CCC583CCDFE9DEE7804A
:100093000D89828A83E493A3F608DFF9ECFAA9F0C9
:1000A300EDFB2289828A83ECFAE0A3C8C582C8CC1F
:1000B300C583CCF0A3C8C582C8CCC583CCDFEADE38
:1000C300E880DB89828A83E493A3F208DFF980CC9A
:1000D30088F0EF60010E4E60C388F0ED2402B40493
:1000E3000050B9F582EB2402B4040050AF2323453A
:0600F3008223900053730C
:1000F900BB010CE58229F582E5833AF583E02250BC
:1001090006E92582F8E622BBFE06E92582F8E22205
:0D011900E58229F582E5833AF583E493221F
:00000001FF
