:0A0324003F065B4F666D7D077F6F9B
:1002E20008093F3F403F3F403F3F041100000000EC
:0302F20001080000
:1002F600E4FDEDC39FE49E5009E4FC0CBC7DFC0DBF
:0203060080F085
:0103080022D2
:1002BE00E4F515AF1512028774092515F8E6F580D9
:1002CE007F017E001202F6E4F5800515E515C39454
:0302DE000840E0F5
:0102E10022FA
:10019900E47B3CFAF9F8AF14AE13AD12AC111200BE
:1001A9004AE47B3CFAF9F812004A8F15E47B3CFAE1
:1001B900F9F8AF14AE13AD12AC1112004AE47B3C4E
:1001C900FAF9F812004AAF038F16E47B3CFAF9F802
:1001D900AF14AE13AD12AC1112004AAF03E5157599
:1001E900F00A8490032493F509E51575F00A84E56E
:1001F900F093F50AE51675F00A8493F50CE5167582
:10020900F00A84E5F093F50DEF75F00A8493F50F84
:0A021900EF75F00A84E5F093F5108C
:0102230022B8
:10030900438901D28C758C3C758AB0D2A9D2AF22AF
:0B0319001203091202BE12019980F8C5
:03000B00020224CA
:10022400C0E0C0F0C083C082C0D075D000C000C0A0
:0D02340001C002C003C004C005C006C00721
:10024100758C3C758AB00508E508B4141E78111246
:1002510000ED7B807A5179017800C31200DC7008CF
:0B026100F514F513F512F511750800F7
:10026C00D007D006D005D004D003D002D001D000E6
:0B027C00D0D0D082D083D0F0D0E03290
:10028700EFC394044003D38001C392A4EFC3940443
:10029700400474FC2FFFEFC394024003D38001C3D3
:1002A70092A3EFC3940240021F1FEFC394014003C0
:0702B700D38001C392A222D3
:0300000002010DED
:0C010D00787FE4F6D8FD758116020154DD
:10000E0075F008758200EF2FFFEE33FECD33CDCCA9
:10001E0033CCC58233C5829BED9AEC99E58298402C
:10002E000CF582EE9BFEED9AFDEC99FC0FD5F0D609
:10003E00E4CEFBE4CDFAE4CCF9A88222B800C1B933
:10004E000059BA002DEC8BF084CFCECDFCE5F0CB71
:10005E00F97818EF2FFFEE33FEED33FDEC33FCEBAA
:10006E0033FB10D703994004EB99FB0FD8E5E4F965
:10007E00FA227818EF2FFFEE33FEED33FDEC33FC52
:10008E00C933C910D7059BE99A4007EC9BFCE99A46
:10009E00F90FD8E0E4C9FAE4CCFB2275F010EF2F8B
:1000AE00FFEE33FEED33FDCC33CCC833C810D7078B
:1000BE009BEC9AE899400AED9BFDEC9AFCE899F8C6
:0E00CE000FD5F0DAE4CDFBE4CCFAE4C8F92259
:1000DC00EB9FF5F0EA9E42F0E99D42F0E89C45F07A
:0100EC0022F1
:1000ED007401FF3395E0FEFDFC080808E62FFFF6CE
:1000FD0018E63EFEF618E63DFDF618E63CFCF62247
:10011900020319E493A3F8E493A34003F68001F2E0
:1001290008DFF48029E493A3F85407240CC8C333E7
:10013900C4540F4420C8834004F456800146F6DFB6
:10014900E4800B01020408102040809002E2E47E62
:10015900019360BCA3FF543F30E509541FFEE493AB
:10016900A360010ECF54C025E060A840B8E493A372
:10017900FAE493A3F8E493A3C8C582C8CAC583CA9D
:10018900F0A3C8C582C8CAC583CADFE9DEE780BE55
:0102F5000008
:00000001FF
