:1003A000282C2F2F2C2A2F332F2C282A2C2F232A8E
:1003B000282C2A282C2F2F282F2F2F252825282F8F
:1003C0002C23252828282523282825282825252CBE
:1003D0002A2C2F2F2C2C2A2F2F252825282F2C256F
:1003E000282828282523282A2A2A382A282831316B
:1003F000312F2C2D2F2D2C3131312F2C2D3B272817
:1004000000FA00FA01F400FA00FA03E801F400FA35
:1004100000FA03E801F400FA00FA01F401F401F42F
:1004200000FA00FA03E803E800FA00FA0177007D19
:1004300000FA00FA0177007D00FA00FA00FA00FAEB
:1004400002EE00FA00FA007D007D00FA00FA00FAE0
:1004500000FA0177007D00FA007D007D00FA00FAC5
:1004600003E800FA00FA00FA007D007D00FA00FAC5
:100470000177007D00FA00FA00FA00FA03E800FABA
:1004800000FA00FA007D007D00FA00FA01F400FA9B
:10049000007D007D007D007D00FA03E801F400FA94
:1004A00000FA02EE00FA01F400FA00FA03E801F49F
:1004B00000FA00FA02EE00FA01F4007D007D04E289
:1005E000120689E4F508E50825E02400F582E434E4
:1005F00004F583E493FE740193FF7C007D031203F2
:100600002DAC06AD07E5089003A093240CFF12065D
:0C061000590508E508C3946040CC80C781
:10061C0041DC0000425C000042DC0000435C000056
:10062C0043DC0000445C000044DC0000455C00003E
:0606820004113F879C7D7E
:10063C007DF5EF1FAA0670011E4A6010AC051DEC7B
:0C064C0070FA7DF5AC051DEC60E880F84C
:01065800227F
:0204C0008F0BA0
:1004C200E4F50FF50EF50DF50CAF0FAE0EAD0DAC5C
:1004D2000CE50B75F00C8425E025E0241CF582E484
:1004E2003406F5831203901200158F0F8E0E8D0DB8
:1004F2008C0CE4F510E50B24FFFFE434FFFE7C00D6
:100502007D0C12032DE510C39D501FAF0FAE0EAD33
:100512000DAC0CAB14AA13A912A8111201068F0F6D
:100522008E0E8D0D8C0C051080CBAB0FAA0EA90D73
:10053200A80C7F007E247DF47C4812020FA804A937
:1005420005AA06AB07E4FFFE7D807C47120011027C
:0205520002ACF9
:08000300438901D2A9D2AF220A
:0306890002000369
:040659008C098D0A71
:10065D001204C0AC068C158F1685158C85168AD2A2
:08066D008CAF0AAE0902063C45
:03000B0002067575
:0D067500C28CB29585158C85168AD28C3208
:10000E00020318E86480F8E933E83360110460F005
:10001E00ED33EC337009E8FCE9FDEAFEEBFF220458
:10002E0060DED3EB9FEA9EE99DE8C2E78CF0C2F753
:10003E0095F0400CE8CCF8E9CDF9EACEFAEBCFFB1F
:10004E001202E385D0F05804700320D5B3E8047093
:10005E00075002B2D502032292D5EC0460F7E4CC2D
:10006E00C0E0C398F8603B94186008400DD0E0FBE8
:10007E000202FAE4FBFAC9FC8028E830E406E4C97F
:10008E00FBE4CAFCE830E305E4C9CACBFCE854073C
:10009E006010F8C3E913F9EA13FAEB13FBEC13FC47
:1000AE00D8F130F52FC3E49CFCEF9BFFEE9AFEEDEA
:1000BE0099FDD0E0FBEF4E4D4C701222DB03020394
:1000CE001FEC2CFCEF33FFEE33FEED33FDED30E78E
:1000DE00EB0202FAEF2BFFEE3AFEED39FDD0E0FB1C
:1000EE0050130BBB0003020322ED13FDEE13FEEFC4
:0800FE0013FFEC13FC0202FAEF
:10010600EC4D6011E8497017ED33EC3304600DE4F3
:10011600FCFFFEFD22E933E8330470F802031812EF
:1001260002E358046009E4CC2481500628500902F1
:10013600032228400302031FC0E0EB4A7044B98043
:1001460006D0E0FB02030EEF4E701CBD8008EBFFED
:10015600EAFEE9FD80EBE98DF0A4FEE5F00201EF91
:10016600E9CDF9EAFEEBFFEF89F0A4FCE5F0CE89D4
:10017600F0A42EFFE435F0CD89F0A42DFEE435F091
:100186008067EF4E7005BD80D780C3EF8BF0A4ACBF
:10019600F0EE8BF0A42CFCE435F0F8EF8AF0A42CFA
:1001A600E5F038FCE433CB8DF0A42CFCE5F03BF80D
:1001B600EE8AF0A42CFCE5F038F8E433CF89F0A4FD
:1001C6002CFCE5F038CF3400CE89F0A42FFFE5F003
:1001D6003EFEE433C98DF0A42EFEE5F039CD8AF05B
:1001E600A42FFFE5F03EFEE43DFD33D0E0FB5007D3
:1001F6000BBB000F020322EC2CFCEF33FFEE33FEA9
:06020600ED33FD0202FAD7
:10020C00020322EC5D046005E85904700302031834
:10021C001202E3580460F6EC4860F2EC7004FDFE48
:10022C00FF22C860DB2481C85009C39860025006C5
:10023C0002031F9850CAF582E9294B4A7005AB821C
:10024C0002030E75F0007C1A7880C3EF9BEE9AEDDA
:10025C0099400DC3EF9BFFEE9AFEED99FDE842F03D
:10026C00DC23ACF0D0E0FFD0E0FED0E0FDAB822090
:10027C00E7101BEB60BAEC2CFCEF33FFEE33FEED1A
:10028C0033FD0202FAE803F830E705C0F075F00020
:10029C00EF2FFFEE33FEED33FD40B830E7C280AAFE
:1002AC00EDD2E7CD33EC3392D524814006E4FFFE4A
:1002BC00FDFC22FCE4CFCECDCC24E0501174FF80A9
:1002CC00EDC3CC13CCCD13CDCE13CECF13CF047046
:0702DC00F030D5DE020382C1
:1002E300E9D2E7C933E833F892D5EDD2E7CD33EC61
:0702F30033FC5002B2D522DA
:1002FA00EC30E7100FBF000C0EBE00080DBD000465
:10030A000BEB6014A2D5EB13FCED92E7FD2274FF10
:10031A00FCFDFEFF22E480F8A2D574FF13FC7D8069
:03032A00E480EF7D
:03000000020554A2
:0C055400787FE4F6D8FD75811602059B47
:10032D00BC000BBE0029EF8DF084FFADF022E4CCB4
:10033D00F875F008EF2FFFEE33FEEC33FCEE9DEC7D
:10034D00984005FCEE9DFE0FD5F0E9E4CEFD22EDC3
:10035D00F8F5F0EE8420D21CFEADF075F008EF2F0D
:10036D00FFED33FD4007985006D5F0F222C398FDFE
:05037D000FD5F0EA229B
:0E038200C3E49FFFE49EFEE49DFDE49CFC228C
:10039000E493F8740193F9740293FA740393FB22C3
:100560000205E0E493A3F8E493A34003F68001F2CC
:1005700008DFF48029E493A3F85407240CC8C3339C
:10058000C4540F4420C8834004F456800146F6DF6B
:10059000E4800B0102040810204080900682E47E73
:1005A000019360BCA3FF543F30E509541FFEE49360
:1005B000A360010ECF54C025E060A840B8E493A327
:1005C000FAE493A3F8E493A3C8C582C8CAC583CA52
:1005D000F0A3C8C582C8CAC583CADFE9DEE780BE0A
:010688000071
:00000001FF
